:020000040000FA
:030000000200E318
:100083000202B100000080FB120113B90003020059
:10009300CDE4900F00781D79018002F0A3D8FCD93C
:1000A300FA900F1CAA82AB83900116780379018022
:1000B30015E493A3AC82AD838A828B83F0A3AA82D7
:1000C300AB838C828D83D8E9D9E775827F758308EA
:1000D30074001200F575828675830074001200F5B2
:1000E30075D0007581BF75100075110F759F0002E3
:1000F300008BC09FF59FE473D09F22D083D082C032
:100103009FE493C0E0740193C0E0740293F59F22CF
:1001130079012205001200FEA505001200FE2A0740
:10012300001200FE3E07001200FE5607001200FEFA
:100133006807001200FEC607001200FEC602001286
:1001430000FE6603002510C582C0E0E51134FFC53B
:1001530083C0E0E510C3958224F810AF08858311AE
:100163008582108008858311858210D2AFCEF0A3DB
:10017300E520F0A37808E608F0A3DEFAEFF0A3E5A4
:100183008124FAF8E608F0A3E608F0A3E608F0A352
:100193000808E608F0A3E608F0A315811581D0E06E
:1001A300FED0E0F8158115811581E8C0E0EEC0E0CE
:1001B30022851183851082E0A3FEE0A3F520780851
:1001C300E0A3F608DFFAE0A3FFE0A3C0E0E0A3C0EA
:1001D300E0E0A3C0E0E0A3C0E0E0A3C0E010AF080C
:1001E3008582108583118008858210858311D2AFA3
:1001F300D083D0820200FBC0D02510C582C0E0E5C9
:100203001134FFC583C0E0E510C3958224F310AF1A
:10021300088583118582108008858311858210D219
:10022300AFC8F0A3E9F0A3EAF0A3EBF0A37908E7E2
:1002330009F0A3D8FAECF0A3EDF0A3EEF0A3EFF0EE
:10024300A3D0E0F0A3D0E0F0A3D0E0F0A3E520F04A
:10025300A3E5F0F0A322851183851082E0C0E0A31B
:10026300E0F9A3E0FAA3E0FBA37808E0F608A3DF34
:10027300FAE0FCA3E0FDA3E0FEA3E0FFA3E0C0E0FF
:10028300A3E0C0E0A3E0F5D0A3E0F520A3E0A3F54D
:10029300F010AF088583118582108008858311854E
:1002A3008210D2AFD082D083D0E0F8D0E032C0E069
:1002B30074F21201FA759B007591001201427F01DD
:1002C300020259C082C08353BEFBE59DA2E650FAE9
:1002D3000078007900800900E82401F8E93400F986
:1002E300C3E894F8E99401A2D265D03340E975C616
:1002F30080E59E648070FA43BE0475A80075B8005B
:10030300759A019061897400F090618A7400F0908D
:1003130061917469F09061957400F09061A874859F
:10032300F09061A97414F09061B87475F09061B99C
:100333007408F09061B27415F09061FA7409F0904A
:1003430061AE7400F090618F741FF09061E07401EE
:10035300F0D2AF9061A47402F0759B00D083D08279
:100363000200FBC082C0837A027B0F1201247C103F
:100373007D0F7B067A03790C1201367B017A0A79A9
:100383000C120130900F1CE02401F0A3E03400F0C4
:10039300900F1CE0F8A3E0F9E4E9F8900F18F0904F
:1003A3000F1CE0F8A3E0F9E8900F19F075D9189045
:1003B3000F18E0F5D9900F19E0F5D9900F02E0F589
:1003C300D9900F03E0F5D9900F04E0F5D9900F050C
:1003D300E0F5D9900F06E0F5D9900F07E0F5D99035
:1003E3000F08E0F5D9900F09E0F5D9900F0AE0F571
:1003F300D9900F0BE0F5D9900F0CE0F5D9900F0DC4
:10040300E0F5D9900F0EE0F5D9900F0FE0F5D990F4
:100413000F10E0F5D9900F11E0F5D9900F12E0F528
:10042300D9900F13E0F5D9900F14E0F5D9900F157B
:10043300E0F5D9900F19E0F87900900F18E0FA7BF6
:1004430000E82AF8E93BF9900F02E0FA7B00E82A7A
:10045300F8E93BF9900F03E0FA7B00E82AF8E93B5F
:10046300F9900F04E0FA7B00E82AF8E93BF9900FD2
:1004730005E0FA7B00E82AF8E93BF9900F06E0FA79
:100483007B00E82AF8E93BF9900F07E0FA7B00E8E4
:100493002AF8E93BF9900F08E0FA7B00E82AF8E92B
:1004A3003BF9900F09E0FA7B00E82AF8E93BF99061
:1004B3000F0AE0FA7B00E82AF8E93BF9900F0BE01A
:1004C300FA7B00E82AF8E93BF9900F0CE0FA7B008D
:1004D300E82AF8E93BF9900F0DE0FA7B00E82AF8E7
:1004E300E93BF9900F0EE0FA7B00E82AF8E93BF9C3
:1004F300900F0FE0FA7B00E82AF8E93BF9900F1020
:10050300E0FA7B00E82AF8E93BF9900F11E0FA7B67
:1005130000E82AF8E93BF9900F12E0FA7B00E82A99
:10052300F8E93BF9900F13E0FA7B00E82AF8E93B7E
:10053300F9900F14E0FA7B00E82AF8E93BF9900FF1
:1005430015E0FA7B00E82AF8E93BF9900F16E8F08A
:10055300A3E9F0900F16E0F8A3E0F9E4E9F8900FAF
:100563001AF0900F16E0F8A3E0F9E8900F1BF09053
:100573000F1AE0F5D9900F1BE0F5D97800790080C8
:100583000900E82401F8E93400F9C3E89470E99418
:1005930017A2D265D03340E975E1E9D083D0820256
:1005A30000FBC082C0837B017A6B79681201307BC8
:1005B300077A1979681201307B007A1A7968120177
:1005C300307B107A1B79681201307B007A1C7968C2
:1005D3001201307B007A1D79681201307B007A1E8C
:1005E30079681201307B007A1F79681201307B0031
:1005F3007A2079681201307B007A21796812013000
:100603007B007A2279681201307B007A23796812A1
:1006130001307B007A2479681201307B007A2579D6
:10062300681201307B007A2679681201307B007AE8
:100633002779681201307B007A2879681201307BB0
:10064300007A2979681201307B007A2A79681201CD
:10065300307B007A2B79681201307B007A2C796821
:100663001201307B007A2D79681201307B007A2EDB
:1006730079681201307B007A2F79681201307B0090
:100683007A3079681201307B007A3179681201304F
:100693007B007A3279681201307B007A33796812F1
:1006A30001307B007A3479681201307B007A357926
:1006B300681201307B027A3779681201307B007A45
:1006C3003879681201307B007A6379681201307BD4
:1006D300007A6479681201307B007A6579681201C7
:1006E300307B007A6679681201307B007A6779681B
:1006F3001201307B007A6879681201307B007A69D5
:1007030079681201307B007A6A79681201307B00C4
:100713007A6C79681201307B007A7479681201303F
:10072300D083D0820200FBC082C0837B017A6B79C5
:1007330068120130D083D0820200FBC082C083EAFA
:10074300FCEBFD7B0E7A3B7968120136D083D082B5
:100753000200FBC082C083906231E06970F9D083EC
:10076300D0820200FB74F7120148E9FEEAFF8B080E
:1007730075F002EEA4900F00F090623074E2F0790D
:100783000812012A900F00E0906232F090623074F8
:10079300C2F0791812012AEF906232F0906230743D
:1007A300C2F0792812012AE508906232F090623093
:1007B30074C2F0792812012A90623074D2F07F015A
:1007C3000201B474F512014889098A0A8B08ECFE08
:1007D300EDFF75F002E509A4900F00F075F002E556
:1007E30009A44401900F01F090623074E2F079089B
:1007F30012012A900F00E0906232F090623074C2CE
:10080300F0791812012AE50A906232F0906230748E
:10081300C2F0792812012A90623074E2F079101242
:10082300012A900F01E0906232F090623074C2F0BE
:10083300794012012A801F90623074C6F0795012F9
:10084300012A906232E08E828F83F08E828F83A39F
:10085300AE82AF831508E508C3940250DA90623084
:1008630074C2F0795812012A906232E08E828F832B
:10087300F090623074D2F07F030201B47E007F00F7
:1008830075FE02D29212011812011E12013C1201CE
:030893004280FEA2
:04000005000000E314
:00000001FF
