:020000040000FA
:030000000200BA41
:1000830002033E00000080FB1200EAB900030200F5
:10009300A4E4900F00783279018002F0A3D8FCD950
:1000A300FA75827275830674001200CC75828675A8
:1000B300830074001200CC75D0007581BF751000E9
:1000C30075110F759F0002008BC09FF59FE473D0DD
:1000D3009F22D083D082C09FE493C0E0740193C079
:1000E300E0740293F59F227901221200D570050076
:1000F3001200D5F005001200D50406001200D51633
:1001030006001200D59A06001200D5A006001200C0
:10011300D54D03001200D5BD03001200D5C903005D
:100123001200D5DF03001200D50904001200D51D0B
:1001330004001200D52304001200D5C30400CAC072
:10014300E0E6F0A308DAFAD0E0FA22CAC0E0E0A3BE
:10015300C582CCC582C583CDC583F0A3C582CCC57A
:1001630082C583CDC583DAE6D0E0CA22251010AF5D
:1001730008F510400215118008F51040021511D240
:10018300AF22C0D0251010AF08F510500205118022
:1001930008F51050020511D2AFD0D0222510F582F8
:1001A30010AF08F510400215118008F51040021534
:1001B30011D2AF851183222510F582E43511F58321
:1001C300222510C582C0E0E51134FFC583C0E0E5F8
:1001D30010C3958224F810AF08858311858210809F
:1001E30008858311858210D2AFCEF0A3E520F0A35A
:1001F3007808E608F0A3DEFAEFF0A3E58124FAF825
:10020300E608F0A3E608F0A3E608F0A30808E6086A
:10021300F0A3E608F0A315811581D0E0FED0E0F845
:10022300158115811581E8C0E0EEC0E022851183B8
:10023300851082E0A3FEE0A3F5207808E0A3F6088A
:10024300DFFAE0A3FFE0A3C0E0E0A3C0E0E0A3C0C7
:10025300E0E0A3C0E0E0A3C0E010AF088582108512
:1002630083118008858210858311D2AFD083D08219
:100273000200D2C0D02510C582C0E0E51134FFC50D
:1002830083C0E0E510C3958224F310AF0885831182
:100293008582108008858311858210D2AFC8F0A3B0
:1002A300E9F0A3EAF0A3EBF0A37908E709F0A3D8F8
:1002B300FAECF0A3EDF0A3EEF0A3EFF0A3D0E0F09F
:1002C300A3D0E0F0A3D0E0F0A3E520F0A3E5F0F0A5
:1002D300A322851183851082E0C0E0A3E0F9A3E0A7
:1002E300FAA3E0FBA37808E0F608A3DFFAE0FCA397
:1002F300E0FDA3E0FEA3E0FFA3E0C0E0A3E0C0E0D5
:10030300A3E0F5D0A3E0F520A3E0A3F5F010AF0838
:100313008583118582108008858311858210D2AF71
:10032300D082D083D0E0F8D0E03274028000C0E005
:10033300F40412019FD0E012014122C0E074F212D2
:10034300027612013B7F010202D5C082C08353BEF5
:10035300FBE59DA2E650FA0078007900C3E894F823
:10036300E99401A2D265D033500B00E82401F8E9E7
:100373003400F980E775C680E59E648070FA43BE59
:1003830004759A019061897400F090618A7400F099
:100393009061917469F09061957400F09061A87414
:1003A30085F09061E07401F0D2AF759B0075910008
:1003B30075E900D083D0820200D275E1ED75E1EEDC
:1003C30075E1FF0200D2C082C08375F005E9A42461
:1003D300D490618FF0D083D0820200D274F61201E0
:1003E300C489D97800E9C3940140168808750900C7
:1003F300EA2508F582EB3509F583E0F5D90819807C
:10040300E47F02020230C082C0839061A47402F0D0
:10041300759B00D083D0820200D275E1E90200D23D
:1004230074F01201C4E9FE74101201BAE0F8A3E0FB
:10043300F9880A890B74121201BAE0F8A3E0F9886B
:100443000C890D74141201BAE0F8A3E0F97F00E5FA
:10045300D98C828D83F08F087509008C828D83E09F
:10046300F50E750F00E50E24FEF50EE50F34FFF5CE
:100473000FC3E508950EE509950FA2D265D0335059
:1004830018EFC39E5013E5D98A828B83F00F8A82BB
:100493008B83A3AA82AB8380BDE5D988828983F04D
:1004A30088828983A3A882A983E5D988828983F076
:1004B300906198E0850A82850B83F07F0802023001
:1004C30074F61201C474CA12016FE591C39401401A
:1004D3002F900F19C082C08374051201BAAC82AD8C
:1004E30083D083D082741812014E791874051201D7
:1004F300BAAA82AB8312012312012F759100806087
:10050300E5E9C3940140597E1974031201BA858247
:1005130008858309780812032D74031201BA8582B2
:1005230008858309780812032D74041201BA8582A1
:1005330008858309780812032DEEF974081201BAAD
:10054300AC82AD8374231201BAAA82AB8312013544
:10055300740612018574351201BA7401F075E9004D
:10056300759B0074361201857F02020230C082C07F
:10057300837B017A6B79681200FF7B077A197968AC
:100583001200FF7B007A1A79681200FF7B107A1B36
:1005930079681200FF7B007A1C79681200FF7B00E8
:1005A3007A2379681200FF7B007A2479681200FFAE
:1005B3007B027A3779681200FF7B007A67796812C9
:1005C30000FF7B007A6879681200FF7B007A6A7902
:1005D300681200FF7B007A6C79681200FF7B007A57
:1005E3007479681200FFD083D0820200D2C082C027
:1005F300837B017A6B79681200FFD083D08202007B
:10060300D2C082C083906231E06970F9D083D08216
:100613000200D274F71201C4E9FEEAFF8B08EEC3AD
:1006230033900F00F090623074E2F079081200F911
:10063300900F00E0906232F090623074C2F079184B
:100643001200F9EF906232F090623074C2F07928B0
:100653001200F9E508906232F090623074C2F079CA
:10066300281200F990623074D2F07F010202301236
:10067300010512010B1200ED1200F3120117120112
:1006830011790F12011D12012979187A017B0F12BA
:10069300012312012F80FE43FE030200D2D29102F6
:0206A30000D283
:04000005000000BA3D
:00000001FF
